:1000000061C3000090C300008EC300008CC30000D9
:100010008AC3000088C3000086C3000084C30000B8
:1000200082C300000C94770C0C94770C0C94770C22
:100030007AC3000041C7000076C3000074C300000B
:1000400072C300000C944A0C6EC300006CC3000025
:100050006AC3000068C3000066C300008EC60000CB
:1000600062C300008AC500005FC500005CC30000D9
:100070005AC3000058C3000056C3000054C3000018
:100080000C941D0C50C300004EC300004CC3000074
:1000900022C50000F7C4000046C3000044C30000AE
:1000A00042C3000040C300000C94F00B3CC30000AE
:1000B0003AC3000038C3000036C300000C94C30BE1
:1000C00032C3000030C300002EC300002CC3000068
:1000D0002AC3000028C3000026C3000024C3000078
:1000E00022C30000D204D504C404C804CE040C0505
:1000F000D904DD04E304E704EB04F104F504F90496
:100100000C05FF040305070500002100240027005B
:100110002A002D0030003300010100000401070116
:100120000A01010210202008081020401020408001
:1001300002010201080402010102040810204080AB
:100140008040201008040201800402018040201039
:100150000804020108040201010204081020408082
:100160000102040810204080050505050705080860
:100170000808020202020A0A080804040404010131
:100180000101010101010303030303030303040746
:1001900007070C0C0C0C0C0C0C0C020202020606DD
:1001A0000606060606060B0B0B0B0B0B0B0B41543E
:1001B0002B4350494E3F0D0A0041542B4346554EA8
:1001C0003D310D0A0041540D0A005741524E494E2F
:1001D000473A20436F6D6D756E69636174696F6E28
:1001E000206661696C7572652C206973207468657E
:1001F000204D4652433532322070726F7065726CFA
:100200007920636F6E6E65637465643F00202875A6
:100210006E6B6E6F776E2900203D2076322E300097
:10022000203D2076312E30004D465243353232206B
:10023000536F6674776172652056657273696F6E6D
:100240003A2030780057616974696E6720504943DD
:10025000437320746F206265207363616E6E656402
:100260000045766572797468696E672052656164CD
:1002700079002D2D2D2D2D2D2D2D2D2D2D2D2D2D8F
:100280002D2D2D2D2D004D617374657220436172EB
:1002900064277320554944002D2D2D2D2D2D2D2DF6
:1002A0002D2D2D2D2D2D2D2D2D2D2D004D617374CA
:1002B0006572204361726420446566696E656400FE
:1002C0005363616E2041205049434320746F2044A2
:1002D0006566696E65206173204D61737465722077
:1002E00043617264004E6F204D61737465722043E8
:1002F00061726420446566696E656400576970695F
:100300006E672043616E63656C6C656400454550A3
:10031000524F4D205375636365737366756C6C79CA
:10032000205769706564005374617274696E672048
:10033000576970696E6720454550524F4D005468AB
:1003400069732077696C6C2072656D6F76652061CA
:100350006C6C207265636F72647320616E642063DD
:10036000616E6E6F7420626520756E646F6E6500DD
:10037000596F7520686176652035207365636F6EEF
:10038000647320746F2043616E63656C00576970FD
:100390006520427574746F6E205072657373656466
:1003A0000041636365737320436F6E74726F6C20DA
:1003B00076332E330053756363657366756C6C79A1
:1003C0002072656D6F766564204944207265636FA5
:1003D00072642066726F6D20454550524F4D004645
:1003E00061696C65642120546865726520697320B9
:1003F000736F6D657468696E672077726F6E6720C2
:1004000077697468204944206F72206261642045D6
:100410004550524F4D0053756363657366756C6C40
:1004200079206164646564204944207265636F7259
:100430006420746F20454550524F4D004661696CF1
:1004400065642120546865726520697320736F6D3F
:10045000657468696E672077726F6E67207769745C
:1004600068204944206F72206261642045455052E3
:100470004F4D00596F75207368616C6C206E6F74FE
:1004800020706173730057656C636F6D652C205924
:100490006F75207368616C6C2070617373002D2D13
:1004A0002D2D2D2D2D2D2D2D2D2D2D2D2D2D2D2D7C
:1004B0002D2D2D2D2D2D2D2D2D2D2D005363616EC8
:1004C0002061205049434320746F20414444206FF1
:1004D000722052454D4F564500207265636F72641D
:1004E000287329206F6E20454550524F4D004920FA
:1004F00068617665200048656C6C6F204D6173748F
:100500006572202D20456E74657265642050726F8F
:100510006772616D204D6F6465002D2D2D2D2D2D81
:100520002D2D2D2D2D2D2D2D2D2D2D2D2D2D2D2DFB
:100530002D2D2D2D2D2D2D004920646F206E6F74D3
:10054000206B6E6F77207468697320504943432C89
:1005500020616464696E672E2E2E0049206B6E6FD9
:1005600077207468697320504943432C2072656D6D
:100570006F76696E672E2E2E002D2D2D2D2D2D2D93
:100580002D2D2D2D2D2D2D2D2D2D2D2D2D2D2D2D9B
:100590002D2D2D2D2D2D0045786974696E67205005
:1005A000726F6772616D204D6F6465004D61737489
:1005B00065722043617264205363616E6E656400EE
:1005C00000002200250028002B002E0031003400FE
:1005D00002010000050108010B01000020002300BA
:1005E000260029002C002F0032000001000003012A
:1005F0000601090100000A0B02090C0D0E08070391
:1006000004010000000000000000000000000000E5
:1006100000000000000000000000000000000000DA
:100620001211100000000000000000000000000097
:10063000000000000000000000005363616E6E6562
:100640006420504943432773205549443A000D0A1A
:100650000041542B434D47523D0041542B434D47DD
:10066000463D310D0A0041542B434D474C3D22522B
:10067000454320554E52454144222C310D0A00413C
:10068000542B434D474C3D2252454320554E524535
:100690004144222C310D0A00220D0A0041542B4303
:1006A0004D47533D220041542B434D47463D310DAC
:1006B0000A0041542B435343533D2247534D220DCF
:1006C0000A002B1A11241FBECFEFD1E2DEBFCDBF2F
:1006D00000E00CBF15E0A0E0B2E0EAEAF1E400E0DF
:1006E0000BBF02C007900D92A634B107D9F728E0DE
:1006F000A6E4B5E001C01D92A033B207E1F713E014
:10070000C2E6D3E000E006C021970109802FFE0178
:100710000E94D91DC136D10780E00807A9F70E94C1
:1007200044140C94D3206CCCFC01A089B1898C9129
:10073000A689B78982FD0FC09C91818D8F5F8F73D1
:10074000228D821749F0218DDF01A20FB11D5D9628
:100750009C93818F08958C910895FC01538D448D55
:10076000252F30E0842F90E0821B930B541710F05C
:10077000CF96089501970895FC01918D828D981769
:1007800061F0828DDF01A80FB11D5D968C91928D75
:100790009F5F9F73928F90E008958FEF9FEF089572
:1007A000FC01918D828D981731F0828DE80FF11D3B
:1007B000858D90E008958FEF9FEF0895FC01918D56
:1007C000228D892F90E0805C9F4F821B91098F734F
:1007D0009927089589E697E0F1DF21E0892B09F454
:1007E00020E0822F089586E695E0E8DF21E0892B5E
:1007F00009F420E0822F0895FC01848DDF01A80F09
:10080000B11DA35ABF4F2C91848D90E001968F7338
:100810009927848FA689B7892C93A089B1898C9157
:1008200080648C93938D848D981306C00288F3891D
:10083000E02D80818F7D80830895EF92FF920F934A
:100840001F93CF93DF93EC0181E0888F9B8D8C8D7C
:10085000981305C0E889F989808185FD23C0F62EAB
:100860000B8D10E00F5F1F4F0F731127E02E8C8D43
:10087000E8120BC00FB607FCFACFE889F98980812E
:1008800085FFF5CFCE01B8DFF2CF8B8DFE01E80FEB
:10089000F11DE35AFF4FF0820B8FEA89FB898081BB
:1008A000806207C0EE89FF896083E889F9898081C9
:1008B0008064808381E090E0DF91CF911F910F9160
:1008C000FF90EF900895CF93DF93EC01888D8823FC
:1008D000C1F0EA89FB89808185FD05C0A889B989B5
:1008E0008C9186FD0EC00FB607FCF5CF808185FF89
:1008F000F2CFA889B9898C9185FFEDCFCE017CDF3D
:10090000E8CFDF91CF91089580E090E0892B19F036
:100910006ADF811120C080E090E0892B19F05ADF56
:1009200081111CC080E090E0892B41F080E090E0D4
:10093000892B21F00E940000811113C080E090E01B
:10094000892BA1F080E090E0892B81F00E940000CB
:1009500081110AC008950E940000DDCF0E940000AE
:10096000E1CF0E940000EACF0C940000089590E0CF
:10097000FC013197E231F10508F04EC08827EE58AE
:10098000FF4F8F4F0C94D91D809180008F7703C04B
:10099000809180008F7D80938000089580918000F9
:1009A000877FF9CF84B58F7702C084B58F7D84BDF2
:1009B00008958091B0008F7703C08091B0008F7D43
:1009C0008093B0000895809190008F7707C0809148
:1009D00090008F7D03C080919000877F809390006E
:1009E00008958091A0008F7707C08091A0008F7D2F
:1009F00003C08091A000877F8093A000089580911C
:100A000020018F7707C0809120018F7D03C08091E6
:100A10002001877F8093200108953FB7F89480914B
:100A2000540590915505A0915605B091570526B5EE
:100A3000A89B05C02F3F19F00196A11DB11D3FBF16
:100A4000BA2FA92F982F8827820F911DA11DB11DA4
:100A5000BC01CD0142E0660F771F881F991F4A95A0
:100A6000D1F70895DC01ED91FD91BD010190F08178
:100A7000E02D40E0199591E0811190E0892F0895D3
:100A80000E94E11D1F920F920FB60F9211240BB618
:100A90000F922F933F934F935F936F937F938F9317
:100AA0009F93AF93BF93EF93FF9389E697E0A4DE04
:100AB000FF91EF91BF91AF919F918F917F916F9136
:100AC0005F914F913F912F910F900BBE0F900FBEF2
:100AD0000F901F9018951F920F920FB60F9211242E
:100AE0000BB60F922F933F934F935F936F937F9328
:100AF0008F939F93AF93BF93EF93FF9389E697E014
:100B000013DEFF91EF91BF91AF919F918F917F91F4
:100B10006F915F914F913F912F910F900BBE0F906E
:100B20000FBE0F901F9018951F920F920FB60F9245
:100B300011240BB60F922F933F934F935F936F93B4
:100B40007F938F939F93AF93BF93EF93FF9386E62B
:100B500095E052DEFF91EF91BF91AF919F918F9100
:100B60007F916F915F914F913F912F910F900BBEAD
:100B70000F900FBE0F901F9018951F920F920FB6F7
:100B80000F9211240BB60F922F933F934F935F93C5
:100B90006F937F938F939F93AF93BF93EF93FF9345
:100BA00086E695E0C1DDFF91EF91BF91AF919F91F6
:100BB0008F917F916F915F914F913F912F910F9006
:100BC0000BBE0F900FBE0F901F901895CF93DF9321
:100BD000282F30E0F901EC50FA4F8491F901EE5DD5
:100BE000FE4FD491F901E859FE4FC491CC2389F00E
:100BF0008111BDDEEC2FF0E0EE0FFF1FE652FA4F41
:100C0000A591B491EC91ED2381E090E021F480E096
:100C100002C080E090E0DF91CF9108951F93CF93C1
:100C2000DF93282F30E0F901EC50FA4F8491F9015D
:100C3000EE5DFE4FD491F901E859FE4FC491CC23EB
:100C4000C1F0162F811193DEEC2FF0E0EE0FFF1FA5
:100C5000E054FA4FA591B4918FB7F894111105C0E3
:100C60009C91ED2FE095E92302C0EC91ED2BEC93E4
:100C70008FBFDF91CF911F910895CF93DF9390E0C5
:100C8000FC01EE5DFE4F2491FC01E859FE4F84917A
:100C9000882361F190E0880F991FFC01E85FFE4F07
:100CA000C591D491FC01E054FA4FA591B491611122
:100CB00009C09FB7F8948881209582238883EC919E
:100CC0002E230BC0623061F49FB7F8943881822FD5
:100CD000809583238883EC912E2B2C939FBF06C095
:100CE0008FB7F894E8812E2B28838FBFDF91CF91A7
:100CF00008958F929F92AF92BF92CF92DF92EF9220
:100D0000FF926B017C0189DE4B015C01C114D104AF
:100D1000E104F104E9F081DEDC01CB0188199909D5
:100D2000AA09BB09883E9340A105B10578F321E0EB
:100D3000C21AD108E108F10888EE880E83E0981EF7
:100D4000A11CB11CC114D104E104F10421F7DECFD0
:100D5000FF90EF90DF90CF90BF90AF909F908F90DB
:100D600008952FB7F89460915005709151058091C6
:100D70005205909153052FBF08951F920F920FB601
:100D80000F9211242F933F938F939F93AF93BF9311
:100D90008091500590915105A0915205B091530555
:100DA00030914F0523E0230F2D3720F40196A11D2C
:100DB000B11D05C026E8230F0296A11DB11D209389
:100DC0004F058093500590935105A0935205B09321
:100DD00053058091540590915505A0915605B09109
:100DE00057050196A11DB11D80935405909355059B
:100DF000A0935605B0935705BF91AF919F918F91E6
:100E00003F912F910F900FBE0F901F901895A091BA
:100E1000D506B091D606ED91FC9111970190F08125
:100E2000E02D682FCD011994CF93DF93FC0124911D
:100E3000EC012196222329F0FC018491E8DFCE0108
:100E4000F5CFDF91CF9108950F931F93CF93DF9349
:100E5000EC018C01FE0101900020E9F73197EC1BB9
:100E6000FD0BC8018C1B9D0B8E179F0728F4F80102
:100E700081918F01CCDFEECFDF91CF911F910F9148
:100E800008958091D5069091D606DC01ED91FC91F4
:100E90000084F185E02D1994F4DF892B61F08091B5
:100EA000D5069091D606DC01ED91FC910284F38584
:100EB000E02D1995F1CF08951F920F920FB60F9262
:100EC00011240BB60F922F933F934F935F936F9321
:100ED0007F938F939F93AF93BF93EF93FF938091F3
:100EE000040674DE20910806309109062F5F3F4FFB
:100EF000309309062093080690910706953618F05E
:100F000096E090930306909103069430C9F128F47B
:100F1000923069F09330D1F05EC0953009F451C041
:100F2000963009F058C091E09093D40651C08111D9
:100F300052C020910806309109062436310508F484
:100F400042C01092D406109207061CC0813009F0EE
:100F500042C0E091070691E09E0F90930706F0E0F3
:100F60002091080630910906EE0FFF1FED5FF94F43
:100F700030872783109209061092080694E029C052
:100F8000811117C0E091070691E09E0F909307062C
:100F9000F0E02091080630910906EE0FFF1FED5F8B
:100FA000F94F30872783109209061092080693E0C4
:100FB00010C020910806309109062536310558F0F9
:100FC00007C0811108C0109209061092080603C0DC
:100FD00095E090930306909106069923B1F0811154
:100FE0000AC080910506882321F08091050661E002
:100FF00009C02F9A0AC080910506882329F08091A4
:10100000050660E00BDE01C02F98FF91EF91BF91C4
:10101000AF919F918F917F916F915F914F913F9190
:101020002F910F900BBE0F900FBE0F901F90189531
:10103000CF92DF92EF92FF92CF93DF93EC01072ED6
:10104000000C880B990B0E946D1B6B017C0120E04A
:1010500030E040E45FE30E94A81B20E030E048E479
:1010600052E40E94341D0E949C1DC617D707D4F07D
:1010700020E030E040EA5FE3C701B6010E94A81B10
:1010800020E030E048E452E40E94341D20E030E0EB
:1010900040E85FE30E94D01C0E949C1D21E06C1779
:1010A0007D070CF420E0822F90E0DF91CF91FF903C
:1010B000EF90DF90CF90089508958EBD00000DB49D
:1010C00007FEFDCF8EB508958CBD9DBD08951F937D
:1010D000CF93DF93EC01162F83E590E0F5DF60E01E
:1010E0008E859CDD812F8068E8DF80E0E6DF182FA9
:1010F00061E08E8593DD812FDF91CF911F9108955F
:10110000EF92FF921F93CF93DF931F92CDB7DEB77D
:101110007C01162F83E590E04983D6DF60E0F7017C
:1011200086857CDD812FC9DF4981842FC6DF61E0A0
:10113000F70186850F90DF91CF911F91FF90EF907F
:101140006DCDCF92DF92EF92FF920F931F93CF93CB
:10115000DF93EC016B01142F790140E062E0D0DFF6
:1011600044E06AE0CE01CCDF40E864E1CE01C8DFB4
:10117000A601612FCE01CED743E062E0CE01C0DFF1
:1011800008E813E16AE0CE01A2DF82FF10C040E070
:1011900062E0CE01B5DF64E4CE0199DFF701808320
:1011A00062E4CE0194DFF701818380E004C0015046
:1011B000110941F783E0DF91CF911F910F91FF90CB
:1011C000EF90DF90CF900895EF92FF921F93CF930F
:1011D000DF931F92CDB7DEB77C01162F498377DFEF
:1011E000498140954823612FC7010F90DF91CF912E
:1011F0001F91FF90EF9084CF8F929F92AF92CF92EA
:10120000EF92FF920F931F93CF93DF9300D01F9223
:101210001F92CDB7DEB74C0182E08D8340E064E2DF
:10122000C4016EDF40E066E2C4016ADF46E268E4C2
:10123000C40166DF86E28C838D81823008F140E84C
:101240006CE1C401C1DF87E08B83A12CC12CCE01EE
:1012500003967C018E010B5F1F4F9E012F5F3F4F56
:1012600041E0BE016C5F7F4FC40190D781110BC07C
:101270008D81823039F481E09B81911104C008C0D6
:1012800084E001C081E091E0823019F090E001C07B
:1012900091E0892F0F900F900F900F900F90DF919A
:1012A000CF911F910F91FF90EF90CF90AF909F90B3
:1012B0008F9008952F923F924F925F926F927F92FC
:1012C0008F929F92AF92BF92CF92DF92EF92FF9256
:1012D0000F931F93CF93DF93CDB7DEB72D970FB644
:1012E000F894DEBF0FBECDBF413508F006C1342EE5
:1012F0003B014C0140E86CE167DFBB24B39422E082
:10130000B21691F033E0B316E1F041E0B412F9C047
:1013100083E989833320D1F081E0F3019081953016
:1013200008F480E0D12C17C085E98983332081F04F
:1013300081E0F3019081983008F480E053E0D52EED
:101340000AC087E9898346E0D42E04C0D12C02C0AC
:1013500033E0D32E80E0532DF8EFDF9E500D1124A3
:1013600057FD50E0882321F098E89B8343E001C0BB
:1013700042E021E0952F977009F420E0952F959594
:1013800095959595290F21F4882311F1585F20C078
:10139000811102C094E001C093E0291708F4922F54
:1013A00020E030E06D2D70E0E42FE20FA1E0B0E02E
:1013B000AC0FBD1FAE0FB11DF901E60FF71FE60D13
:1013C000F71DE181EC932F5F3F4F291768F3DCCFC6
:1013D00023E0222E5032F4F020E72A839C818B8177
:1013E00089279D8189279E8189278F839E01285F78
:1013F0003F4F47E0BE016F5F7F4FC4015D87A1DEB5
:101400005D858111C9C01B862A86CE0107962C01F5
:1014100079E01EC0952F97709B87252F25952595E0
:10142000259582E0820F392FE0E18E9F300D112447
:101430003A8371E0911101C070E0780F4424439425
:10144000512C4C0E5D1E480E511C87E0821B8A8772
:10145000CB844C2D4295407F4C0D6AE1C4015D87E1
:101460007C874EDEA12C9E01255F3F4F79018E01C6
:10147000065F1F4F92017C85472FBE016F5F7F4F34
:10148000C40184D65D85823091F56CE1C4011FDE14
:101490005D8585FD34C08F7109F480E2282F30E02E
:1014A000452F550F550B421753075CF5582FC901AF
:1014B00001978770992725952595259531E0320F5D
:1014C00021E0009709F420E0230FE1E0F0E0EC0FC9
:1014D000FD1FE20FF11D21E030E002C0220F331F9B
:1014E0008A95E2F7C9019081892B808373CF81119E
:1014F00053C0503244F450E26FCF86E04DC082E0DA
:101500004BC085E049C08B81883809F042C033E088
:1015100023E080E090E06D2D70E0FC01E60FF71F06
:10152000E60DF71D432F480FA1E0B0E0AC0FBD1F43
:10153000A40FB11D4C9141830196821770F38A85E7
:10154000833019F58B85811120C09E012D5F3F4F9F
:1015500041E0B201C401F5DD81111EC09B81F201A1
:101560008181981314C09C818281981310C080815E
:1015700082FF02C0B394C3CEF30183878B2D880F03
:10158000B80EB394B08280E007C081E005C087E068
:1015900003C032E024E0BDCF2D960FB6F894DEBF35
:1015A0000FBECDBFDF91CF911F910F91FF90EF90B4
:1015B000DF90CF90BF90AF909F908F907F906F9073
:1015C0005F904F903F902F900895089580E090E0B5
:1015D0000895CF92DF92EF92FF920F931F93CF93D4
:1015E000DF936C018B017A01EC01C65ADA4F8881D6
:1015F00087FF04C0FB011182108224C08CE08C9D07
:1016000090018D9D300D11248881A901480F511D35
:1016100087FD5A958091670790E04817590794F421
:101620008881A901480F511D87FD5A95CA01FA0109
:10163000EE0FFF1F8E0F9F1FFC01E952F94F8081B3
:1016400086FD19C088818F5F88838CE08C9D900116
:101650008D9D300D11248881A901480F511D87FDF2
:101660005A958091670790E048175907B4F488812C
:101670008C303CF112C08881280F311D87FD3A95CE
:10168000F901EE0FFF1F2E0F3F1FF901E952F94F2D
:10169000808160E08F73C2DAD5CFF80180819181BB
:1016A000049680349C4918F480E49CE904C0F80155
:1016B000808191810496F701918380838FEF8883E5
:1016C00044C0F801408151818881B901680F711DC2
:1016D00087FD7A95CB01FB01EE0FFF1F8E0F9F1F39
:1016E000FC01E952F94F81819281840F951FF70126
:1016F000918380838881A901480F511D87FD5A95E8
:10170000CA01FA01EE0FFF1F8E0F9F1FFC01E95265
:10171000F94F808186FF19C08881280F311D87FD10
:101720003A95F901EE0FFF1F2E0F3F1FF901E95205
:10173000F94F808161E08F73DF91CF911F910F91FD
:10174000FF90EF90DF90CF9069CADF91CF911F910A
:101750000F91FF90EF90DF90CF90089561E08BE1C3
:101760005DDA6AE070E080E090E0C3DA89E12EDAC9
:1017700060E0019721F48BE151DA81E008958BE17B
:101780004DDA80E008951F920F920FB60F92112448
:101790000BB60F922F933F934F935F936F937F936B
:1017A0008F939F93AF93BF93EF93FF9348E251E0E2
:1017B00064E271E080E090E00CDFFF91EF91BF9177
:1017C000AF919F918F917F916F915F914F913F91D9
:1017D0002F910F900BBE0F900FBE0F901F9018957A
:1017E0001F920F920FB60F9211240BB60F922F93E8
:1017F0003F934F935F936F937F938F939F93AF9399
:10180000BF93EF93FF9348EA50E064EA70E083E00F
:1018100090E0DFDEFF91EF91BF91AF919F918F91AB
:101820007F916F915F914F913F912F910F900BBEE0
:101830000F900FBE0F901F9018951F920F920FB62A
:101840000F9211240BB60F922F933F934F935F93F8
:101850006F937F938F939F93AF93BF93EF93FF9378
:1018600048E950E064E970E082E090E0B2DEFF9188
:10187000EF91BF91AF919F918F917F916F915F9108
:101880004F913F912F910F900BBE0F900FBE0F9075
:101890001F9018951F920F920FB60F9211240BB63E
:1018A0000F922F933F934F935F936F937F938F93F9
:1018B0009F93AF93BF93EF93FF9348E850E064E8A2
:1018C00070E081E090E085DEFF91EF91BF91AF91F4
:1018D0009F918F917F916F915F914F913F912F9148
:1018E0000F900BBE0F900FBE0F901F9018951F9278
:1018F0000F920FB60F9211240F900FBE0F901F90F2
:1019000018950C94641C0C945C1C61E086E386D9E9
:1019100068EE73E080E090E0ECD960E086E37ED989
:1019200064E670E080E090E0E4C961E086E376D9A7
:1019300064E670E080E090E0DCD960E086E36ED998
:1019400064E670E080E090E0D4C9D6D268EE73E03F
:1019500080E090E0CEC960E08BE260D960E08FE289
:101960005DD960E08DE25AD968EC70E080E090E0EB
:10197000C0D961E08FE252D968EC70E080E090E07D
:10198000B8D960E08FE24AD968EC70E080E090E07E
:10199000B0D961E08FE242D968EC70E080E090E07D
:1019A000A8D960E08FE23AD968EC70E080E090E07E
:1019B000A0D961E08FE232D968EC70E080E090E07D
:1019C00098D9A3CFEF92FF920F931F93CF93DF93FA
:1019D000880F991F880F991F8C010E5F1F4F3EE5DE
:1019E000E32E35E0F32EEC012696C8018CDFF701DB
:1019F00081937F010F5F1F4F0C171D07B1F7DF9118
:101A0000CF911F910F91FF90EF90089560E08FE2CA
:101A100005D961E08DE202D960E08BE2FFD868EC85
:101A200070E080E090E065D960E08FE2F7D860E098
:101A30008DE2F4D861E08BE2F1D868EC70E080E0F0
:101A400090E057D961E08FE2E9D860E08DE2E6D816
:101A500060E08BE2E3D868EC70E080E090E049C998
:101A6000AF92CF92EF92FF920F931F93CF93DF939A
:101A700000D01F92CDB7DEB78DE198E0BDDB8111BC
:101A800003C080E090E041C08DE198E00E94320503
:101A90008823B9F38AE396E0E5D280E2E82E88E075
:101AA000F82E02E615E0F70161917F01F8016193DC
:101AB0008F0170E080E090E040E1E0D2F5E0063692
:101AC0001F0789F782ED92E019D380E589831A8296
:101AD0009E012D5F3F4F42E0BE016F5F7F4F8DE162
:101AE00098E02FDB81110FC0A12CC12CE12CF12C2F
:101AF00000E010E020E030E044E0BE016F5F7F4F87
:101B00008DE198E043D381E090E00F900F900F902B
:101B10000F90DF91CF911F910F91FF90EF90CF9099
:101B2000AF900895CF93DF9361E088E177D860E0CC
:101B30008BE274D860E08FE271D861E08DE26ED8FC
:101B4000F4DE84E690E001DFC4E6D0E007DE88231F
:101B500031F004DE882349F082EA93E008C084E68D
:101B600090E0F3DE219791F7F4CF8EEA93E0C6D2AE
:101B700084E190E0EADE60E088E1DF91CF914EC839
:101B80006F927F928F929F92AF92BF92CF92DF928D
:101B9000EF92FF920F931F93CF93DF93CDB7DEB7F2
:101BA000C55FD1090FB6F894DEBF0FBECDBF6DB6CD
:101BB0007EB682EC93E0A2D2CE0101967C0184E64F
:101BC000D7011D928A95E9F78FE796E02DD96E012E
:101BD000B5E6CB0ED11CC6014F96F60186011192D7
:101BE000E817F907E1F76EE170E0C601E0D469EEAD
:101BF00072E0C6010E94F01D892B39F062E370E0AB
:101C000080E090E076D880E02AC08EEC92E02CD480
:101C100086E696E009D9C601C396F60111926F01D6
:101C2000E817F907D1F762E370E0C801C0D469EDA5
:101C300073E0C8010E94F01D892B81F06AE370E017
:101C4000C8010E94E51D6C01892B41F08EEC92E0E9
:101C50000BD4C60101960E94131B01C08FEFC82E42
:101C6000880FDD08C114D10409F428C180EE93E087
:101C7000C7D1C6012ED58DB69EB68DB79EB78454FA
:101C800092400FB6F8949EBF0FBE8DBFADB7BEB7E2
:101C900011965D018AE596E0C7D88EEC92E0E4D318
:101CA00068EE73E080E090E024D881E596E0BCD84F
:101CB0004AE0B801C6010E94301BC801C5D88EE4B5
:101CC00096E0B2D8F501C5018C5B9D4F1192E817E3
:101CD000F907E1F764E472E0C50169D462EF73E0EB
:101CE000C5010E94F01D5C01009709F462C06CE21E
:101CF00070E00E94E51D02966C0162E270E00E94B5
:101D0000E51D0097B1F0B601AE0149515F4FFA01F0
:101D10006B019F01241B350B6817790730F46F5F47
:101D20007F4FD6012C912193F3CFFA01E20FF31FDD
:101D300010826CE270E0C6010E94E51D6CE270E06A
:101D400001960E94E51D02966C0162E270E00E941D
:101D5000E51D009791F0F601AE0147535F4FDA01A0
:101D60009D01241B350BE817F90718F421912D93D9
:101D7000F7CFFA01E20FF31F108260ED72E0C501A8
:101D80000E94F01D0097B9F0FC013296D70120E0C7
:101D900030E081918D3041F0233F91E0390721F00F
:101DA0002F5F3F4F8D93F5CFF701E20FF31F1082A6
:101DB00002C080E001C081E00FB6F8949EBE0FBE65
:101DC0008DBE882309F47AC089EF93E097D18DE026
:101DD00094E016D184EF91E07CD487E194E010D1B7
:101DE000CE0189519F4F8AD180E294E009D1CE0182
:101DF00087539F4F83D187EE93E002D1C7017ED1F5
:101E0000FE01E951FF4FA0E0B2E09F01225F3F4F8A
:101E100081E041919D91491380E0E217F307C9F7F2
:101E2000882309F44BC08CE294E068D1B70181E4C7
:101E300094E0F3D28823A1F08FE494E05FD172DEC6
:101E40008DDC882331F08DE694E058D18DE694E066
:101E500005C089E794E052D189E794E04FD42EC0C1
:101E6000B7018FED94E0D9D2882339F00AE010E071
:101E70004CDD01501109E1F721C08DE894E03ED11D
:101E80008FED94E09F938F9381E494E09F938F93E1
:101E90008BE994E09F938F931F930F930E940A1EE8
:101EA000C8012CD10E944C07C80128D4ADB7BEB7D9
:101EB00018960FB6F894BEBF0FBEADBF85EE94E086
:101EC0001DD10FB6F8947EBE0FBE6DBECB50DF4F56
:101ED0000FB6F894DEBF0FBECDBFDF91CF911F913B
:101EE0000F91FF90EF90DF90CF90BF90AF909F90B9
:101EF0008F907F906F900895CF92DF92EF92FF9234
:101F0000DC01A03282E0B8070CF03EC0B7FD06C08D
:101F1000A53BB1052CF0A4EBB0E002C0A0E0B0E01E
:101F200080911B0828E830E06901C81AD10887FDB4
:101F3000D394CC0CDD1CCC0CDD1C0D2C000CEE085D
:101F4000FF0880911C0828E532E0281B310987FD35
:101F50003395220F331F220F331FA901330F660B56
:101F6000770B9A01AB012C193D094E095F090E94BC
:101F7000981C24EB30E040E050E00E94721CC20E3E
:101F8000D31EE41EF51ED60190911A08903398F5E1
:101F900080911B0848E850E0481B510987FD539584
:101FA000440F551F440F551FA417B5078CF080919F
:101FB0001C0828E532E0281B310987FD3395220FE4
:101FC000331F220F331FAD012A173B070CF4A90161
:101FD00042505109440F551F2FB7F894892F90E0B4
:101FE000FC01EE0FFF1F8E0F9F1FFC01E952F94FFE
:101FF000528341832FBFFF90EF90DF90CF900895E1
:10200000009761F0FC0101900020E9F73197AF01E2
:10201000481B590BBC0186E695E09EC280E090E02B
:1020200008950F931F93CF93DF938C01C0E0D0E00E
:10203000F801EC0FFD1F6491662371F0E0916605D5
:10204000F09167050190F081E02D86E695E0199505
:10205000892B11F02196ECCFCE01DF91CF911F910A
:102060000F910895CF93DF93DCDFEC0180ED92E0D8
:10207000C7DF8C0F9D1FDF91CF9108958F929F92A4
:10208000AF92BF920F931F93CF93DF93CDB7DEB77D
:10209000A1970FB6F894DEBF0FBECDBF19A2423094
:1020A00008F44AE08E010F5D1F4F842E912CA12C65
:1020B000B12CA50194010E949E1CE62FB901CA0112
:1020C00001501109EA3014F4E05D01C0E95CD80167
:1020D000EC93232B242B252B61F7C80191DFA196CC
:1020E0000FB6F894DEBF0FBECDBFDF91CF911F9129
:1020F0000F91BF90AF909F908F900895CF93DF93F3
:102100007FDFEC0180ED92E07BDF8C0F9D1FDF9184
:10211000CF910895CF92DF92EF92FF920F931F938A
:10212000CF93DF931F921F92CDB7DEB78C01F62EAF
:1021300083E590E049835A830E94640860E0F801D7
:1021400086850E940E0682E10E945D084981E42E88
:10215000C42E5A81D52E8C2D8E198F1530F4F60190
:1021600081916F010E945D08F6CF61E0F8018685DC
:102170000E940E060F900F90DF91CF911F910F914B
:10218000FF90EF90DF90CF900C945C084F925F929D
:102190006F927F928F929F92AF92BF92CF92DF9277
:1021A000EF92FF920F931F93CF93DF931F921F9293
:1021B000CDB7DEB74C012B01D42E3901E114F10467
:1021C00019F0F701408101C040E0B42EF0E1CF9E4C
:1021D000B00C112440E062E0C4010E9480084FE787
:1021E00068E0C4010E94800840E864E1C4010E94E4
:1021F0008008A2016D2DC4018DDF4B2D6AE1C40161
:102200000E9480084CE062E0C4010E9480086AE1FC
:10221000C4010E946708482F40686AE1C4010E9417
:10222000800880ED482E87E0582E68E0C4010E94A7
:102230006708982F907341F480FD04C081E0481A2C
:10224000510899F783E0A0C06CE0C4010E946708C0
:10225000D82E837109F097C06114710409F459C034
:102260000115110509F455C064E1C4010E94670815
:10227000B82EF80180818B1508F47FC0B082BB2096
:10228000E9F183E590E00E94640860E0F40186854E
:102290000E940E0682E90E945D08CC20A1F08FEF1B
:1022A00090E02C0101C0440CCA94EAF782E90E9434
:1022B0005D0884214094F301908149228429808320
:1022C000CC24C39401C0C12CBA944C2C512C460C84
:1022D000571CCB1438F482E90E945D08F201808318
:1022E000C394F3CF80E00E945D08F201808361E037
:1022F000F40186850E940E060E945C0868E1C40114
:102300000E9467088770E114F10421F0F7018083CF
:1023100001C080E0D3FC33C06114710491F1011558
:10232000110579F1AA2069F1F8014081413019F4D1
:10233000843019F420C0423010F487E025C08111A8
:10234000FCCF42509E012F5F3F4FB301C4010E945A
:10235000A108811119C0F8018081680E711CF30178
:102360003297908189819813E8CF319690818A8144
:102370009813E3CF06C08FEF07C084E005C082E06A
:1023800003C080E001C081E00F900F90DF91CF91FA
:102390001F910F91FF90EF90DF90CF90BF90AF9083
:1023A0009F908F907F906F905F904F900895282F0F
:1023B00080916205882319F081E080932D08809137
:1023C0002D08A2E6B5E0E22FF92F2D919191291366
:1023D00080E095E0A636B907C1F780932D080895EF
:1023E0000F931F93CF93DF9380E090E08CDA082F58
:1023F00010E0C1E0D0E00C171D074CF0CE01E2DA8E
:102400008EE595E0D4DF811103C02196F4CF80E002
:10241000DF91CF911F910F910895CF93DF93FC012E
:1024200001900020E9F731979F01281B390BFB0130
:102430006C507E4F40E050E0B191EC01C40FD51FCD
:10244000A881BA1303C04F5F5F4F02C040E050E065
:102450004217530729F0E617F70771F780E001C02C
:1024600081E0DF91CF9108954F925F926F927F92BA
:102470009F92AF92BF92CF92DF92EF92FF920F9313
:102480001F93CF93DF935C01EC0109900020E9F7E3
:102490002197C81BD90B0E94B1062B013C01C12C0E
:1024A000D12C760100E010E00E944107892BF1F069
:1024B0008091D5069091D606DC01ED91FC910284C5
:1024C000F385E02D1995982E0E94B1066B017C01D1
:1024D000F501E00FF11F8081891103C00F5F1F4FCD
:1024E00002C000E010E00C171D0719F10E94B106B0
:1024F000DC01CB0184199509A609B70989389341F4
:10250000A105B10510F080E017C00E94B106DC0102
:10251000CB018C199D09AE09BF09893B9B40A105E0
:10252000B10510F2C114D104E104F10409F4BCCFE7
:10253000EACF0E944C0781E0DF91CF911F910F916C
:10254000FF90EF90DF90CF90BF90AF909F907F90E3
:102550006F905F904F900895CF92DF92EF92FF922D
:102560000F931F93CF93DF936C017A018B01C0E02F
:10257000D0E0CE15DF0589F0D8016D918D01D6012F
:10258000ED91FC910190F081E02DC6011995892B08
:1025900011F47E0102C02196ECCFC701DF91CF91EB
:1025A0001F910F91FF90EF90DF90CF9008954F9281
:1025B0005F926F927F929F92AF92BF92CF92DF9283
:1025C000EF92FF920F931F93CF93DF935C018B01E8
:1025D0000E94B1062B013C01C12CD12C7601C0E038
:1025E000D0E00E944107892BD9F08091D5069091C7
:1025F000D606DC01ED91FC910284F385E02D19955E
:10260000982E0E94B1066B017C019E012F5F3F4F07
:10261000CA0DDB1D9882201731072CF5E901E1CFA7
:10262000C017D10704F50E94B106DC01CB01841963
:102630009509A609B70989389341A105B10598F410
:102640000E94B106DC01CB018C199D09AE09BF09BE
:10265000893B9B40A105B10520F2C114D104E104DE
:10266000F10409F4BECFDF91CF911F910F91FF903C
:10267000EF90DF90CF90BF90AF909F907F906F9042
:102680005F904F900895CF92DF92EF92FF92CF9399
:10269000DF936B017C01E0916605F0916705019085
:1026A000F081E02D6DE286E695E01995EC01662754
:1026B0007727CB016C197D098E099F094AE0DEDC82
:1026C0008C0F9D1FDF91CF91FF90EF90DF90CF9007
:1026D0000895CF93DF93BC01990F880B990B97FF57
:1026E00002C0D1DF02C04AE0C9DCEC0180ED92E01B
:1026F00087DC8C0F9D1FDF91CF910895CF93DF93DF
:10270000EC0182EB96E00E9414078EEC92E0ACDEC6
:10271000811103C08AEF94E027C086EA96E00E9408
:1027200014078EEC92E0A0DE811103C080E195E0F9
:102730001BC064EF71E080E090E00E9479060E9487
:102740004C078CE996E00E94140780E092E00E941A
:10275000240788E996E00E94140780E395E084DE70
:10276000811107C082E395E0C9DC80E0DF91CF9161
:10277000089568EE73E080E090E00E947906CE0153
:102780000E94240764EF71E080E090E00E947906E7
:102790008AE10E9407078EEC92E0DF91CF9164CE30
:1027A0008F929F92AF92BF92CF92DF92EF92FF9261
:1027B0000F931F93CF93DF93DB01CD91DC91DC016D
:1027C0001C96ED91FC911D97CE17DF070CF04AC0C7
:1027D000FE01EE0FFF1F1A968D919C911B97E80F3B
:1027E000F91F80809180C170DD27B1E0CB27209751
:1027F00019F404E610E002C00CE91FEF79015A0158
:102800006B01020F131FB801C4010E941808892B25
:1028100099F40E0D1F1DB801C4010E941808892BE0
:1028200071F4B8016E0D7F1DC4010E941808892B38
:10283000E1F023E030E005C021E030E002C022E01A
:1028400030E0F5018081918101968217930734F081
:1028500011821082F601808191810196918380839B
:10286000CE0105C081E090E002C08FEF9FEFDF91C5
:10287000CF911F910F91FF90EF90DF90CF90BF907D
:10288000AF909F908F900895CF93DF93CDB7DEB731
:10289000A0970FB6F894DEBF0FBECDBF789484B575
:1028A000826084BD84B5816084BD85B5826085BD4C
:1028B00085B5816085BD80916E00816080936E00DA
:1028C00010928100809181008260809381008091CC
:1028D000810081608093810080918000816080937D
:1028E00080008091B10084608093B1008091B0003D
:1028F00081608093B000809191008260809391000C
:10290000809191008160809391008091900081601E
:10291000809390008091A10082608093A1008091BB
:10292000A10081608093A1008091A00081608093CC
:10293000A00080912101826080932101809121017A
:10294000816080932101809120018160809320012A
:1029500080917A00846080937A0080917A0082600E
:1029600080937A0080917A00816080937A008091D0
:102970007A00806880937A001092C10061E086E15D
:102980000E943D0661E087E10E943D0660E086E12D
:102990000E940E0660E087E10E940E06E091760537
:1029A000F091770582E08083E0917205F0917305E4
:1029B0001082E0917405F09175058FEC8083109280
:1029C0007E05E0917A05F0917B0586E08083E091B9
:1029D0007805F0917905808180618083E0917805A8
:1029E000F0917905808188608083E0917805F0918D
:1029F0007905808180688083E0917805F091790580
:102A000080818F7D80838BE292E078DB61E08FE2D2
:102A10000E943D0661E08DE20E943D0661E08BE28E
:102A20000E943D0660E08FE20E940E0660E08DE2AB
:102A30000E940E0660E08BE20E940E0688E392E0A0
:102A40005DDB61E08AE10E943D0661E08BE10E946E
:102A50003D0660E08AE10E940E0660E08BE10E9484
:102A60000E0683E592E04ADB61E086E30E943D06C4
:102A700061E089E30E943D0660E086E30E940E0665
:102A800060E089E30E940E0685E792E037DB61E0B3
:102A900086E10E943D0661E088E10E943D0660E01B
:102AA00086E10E940E0689E892E028DB61E088E179
:102AB0000E940E0680911A08803308F052C061E02F
:102AC00087E10E943D0680911A08E82FF0E09F01FF
:102AD000220F331FE20FF31FE952F94F9081907CD0
:102AE0009761908310921B0810921C086CE00E9462
:102AF000CD1D9CE0899FB001112440E050E09A0177
:102B0000260F371FF901EE0FFF1F2E0F3F1FF90190
:102B1000E952F94F908196FD17C04F5F5F4F4C30DF
:102B2000510569F7813009F0E1C21092800082E01E
:102B3000809381001092850010928400B19A809158
:102B40006F00826080936F00E0911A08F0E0CF017F
:102B5000880F991FE80FF91FE952F94F80818064AF
:102B6000808384E190E00E94A50C60E088E10E94EF
:102B70000E068CE992E0C2DA8FEA92E0BFDAFFB685
:102B8000F89480914605811127C0EDE9F1E0849128
:102B9000E7E5F1E09491E82FF0E0EE0FFF1FE85F2A
:102BA000FE4FA591B491EC91E92321F461E085E316
:102BB0000E940E0661E085E30E943D068CB58061AF
:102BC0008CBD8CB580648CBD61E084E30E943D06C1
:102BD00061E083E30E943D06809146058F5F80930C
:102BE0004605FFBE61E080912B080E943D0661E032
:102BF00080912B080E940E0680912C088F3FA9F02F
:102C000061E00E943D0680912C080E94E605892B18
:102C100061F461E080912C080E940E0662E370E08E
:102C200080E090E00E94790613C04FE062E08DE101
:102C300098E00E94800862E370E080E090E00E94EB
:102C4000790662E08DE198E00E94670884FDF9CF83
:102C500040E064E28DE198E00E94800840E066E296
:102C60008DE198E00E94800846E268E48DE198E0FA
:102C70000E94800840E864E58DE198E00E948008A9
:102C800049EA66E58DE198E00E94800843E068E546
:102C90008DE198E00E94800848EE6AE58DE198E0B9
:102CA0000E94800840E46AE28DE198E00E9480087A
:102CB0004DE362E28DE198E00E94800868E28DE1D8
:102CC00098E00E946708982F9370933039F0482F4E
:102CD000436068E28DE198E00E94800880914B0596
:102CE000882309F459C061E080E00E943D0661E05C
:102CF00080E00E943D0661E080E00E940E0660E0F8
:102D000080E00E940E066AE070E080E090E00E94A1
:102D1000790685EC91E00E9414078EEC92E0A4DB2A
:102D20008823B9F183ED92E0E9D989EB91E00E9423
:102D300014078EEC92E098DBF82E882351F18CED8D
:102D400092E0DCD9FE013196CE018196EE2EBF2EA7
:102D50001192E817F907E1F7F3E0CF2ED12C8EEAB4
:102D600091E00E94140760E270E08E2D9B2D1FDC25
:102D70006CEE72E08E2D9B2D33D7892B59F46CE2CB
:102D800071E080E090E00E947906E1E0CE1AD1087F
:102D900031F7F12CF0924B0580914B05882339F0E7
:102DA00089EF92E0ABD98BE093E0A8DC03C088E226
:102DB00093E0A4D96CE48DE198E00E9467088077E5
:102DC000803791F040E76CE48DE198E00E94E408E0
:102DD0006CE48DE198E00E946708482F40676CE43E
:102DE0008DE198E00E94800881EA93E03BD96EE68D
:102DF0008DE198E00E946708F82E88E292E011D9F0
:102E00006F2D70E080E090E040E138D9F1E9FF12E9
:102E100003C080E292E008C082E9F81203C088E1B2
:102E200092E002C08DE092E0FCD882ED92E066D99B
:102E30008FEF8F0D8E3F30F08AEC91E013D90E9416
:102E4000850CFFCF62E082E00E943D0682E00E9496
:102E5000E605892B09F075C061E08FE20E940E063D
:102E60008DE893E0FFD880E793E0FCD88EE393E011
:102E7000F9D80E94850C68E873E180E090E00E9438
:102E800079060E94950C82E00E94E605892B09F0E4
:102E90004DC087E293E0E6D8E12CF12CC7010E94F7
:102EA000830C882321F060E0C7010E94810C9FEF12
:102EB000E91AF90AE114E0E1FE0681F78DE093E0FA
:102EC000D1D860E08FE20E940E0668EC70E080E0EE
:102ED00090E00E94790661E08FE20E940E0668ECA5
:102EE00070E080E090E00E94790660E08FE20E944E
:102EF0000E0668EC70E080E090E00E94790661E0E8
:102F00008FE20E940E0668EC70E080E090E00E9484
:102F1000790660E08FE20E940E060E94950C0E94E6
:102F2000950C0E94950C0E94850C0BC08CEF92E0D2
:102F300099D860E08FE20E940E060E94950C0E94D4
:102F4000950C81E090E00E94830C8F3809F43FC01B
:102F500085EE92E087D880EC92E084D80E94300D14
:102F60007C0190934E0580934D0561E08BE20E94B9
:102F70000E0668EC70E080E090E00E94790660E068
:102F80008BE20E940E0668EC70E080E090E00E9408
:102F90007906EF2819F372E6C72E75E0D72EE2E026
:102FA000EE2EF12CF60161916F01C7010E94810C98
:102FB000FFEFEF1AFF0A86E0E816F10499F76FE8D1
:102FC00081E090E00E94810C8CEA92E04BD888E985
:102FD00092E048D886E892E045D857E4C52E55E0FF
:102FE000D52E62E0E62EF12CC7010E94830CF6017B
:102FF00081936F01682F70E080E090E040E13ED85F
:10300000FFEFEF1AFF0A86E0E816F10469F782ED98
:1030100092E074D882E792E025D881E692E022D847
:1030200085E492E01FD80E94060D80914B05811126
:103030000E94C00D0E94300D7C0190934E0580933C
:103040004D0580914C05882319F00E94060D10C093
:1030500061E08BE20E940E0660E08FE20E940E06A5
:1030600060E08DE20E940E0684E190E00E947C0FF9
:10307000EF28D9F280914C058823D1F087E495E0C0
:1030800096D98823E1F00E94950C0E94950C0E942D
:10309000950C8CEA95E00E94321087E995E00E9439
:1030A000321089E795E00E94321010924C051BC047
:1030B00087E495E07CD9882309F474C19EC190D936
:1030C000882309F4ECC08BE595E00E94321088D982
:1030D000811138C00E94AB0C8FED93E00E9432103A
:1030E0008DE493E00BD80E9484049FCF823061F47A
:1030F000109290008093910010929500109294008D
:1031000088BB8093710020CD833069F41092A000B9
:1031100082E08093A1001092A5001092A40089BBC8
:103120008093720011CD81110FCD1092200182E0A9
:103130008093210110922501109224018ABB809373
:10314000730002CD80E090E00E94830CC82ED12C49
:10315000AA24A394B12C7501CA14DB0464F0C50140
:103160000E94E20C8EE595E022D99FEFA91AB90AD8
:10317000882389F302C0E12EF02E5701AA0CBB1C54
:10318000AA0CBB1CC6018E199F098C01000F111FD0
:10319000000F111FB6016150710980E090E00E949C
:1031A000810C6501E6E0CE0ED11C812C912C80169D
:1031B00091067CF4C6010E94830C682FC601049717
:1031C0000E94810CFFEF8F1A9F0A8FEFC81AD80A4E
:1031D000EECFC80117FF02C080E090E0C12CD12CD7
:1031E00085010E5F1F4F080F191F60E0C8018C0D8D
:1031F0009D1D0E94810C9FEFC91AD90AE4E0CE16EA
:10320000D10499F760E08BE20E940E0660E08FE245
:103210000E940E0660E08DE20E940E0668EC70E0EF
:1032200080E090E00E94790661E08BE20E940E0649
:1032300068EC70E080E090E00E94790660E08BE24C
:103240000E940E0668EC70E080E090E00E94790633
:1032500061E08BE20E940E0668EC70E080E090E096
:103260000E94790660E08BE20E940E0668EC70E036
:1032700080E090E00E94790661E08BE20E940E06F9
:1032800068EC70E080E090E00E9479060E94950C66
:1032900085EB93E00E9432101E2D0F2D21CF88E385
:1032A00095E00E9432109CD8811173C080E090E0BC
:1032B0000E94830C682F70E07B01EE0CFF1CEE0C6B
:1032C000FF1C6F5F7F4F80E090E00E94810C92E6D0
:1032D000A92E95E0B92E6701F6E0CF0ED11C8AE049
:1032E000E80EF11CF50161915F01C6010E94810C9D
:1032F000FFEFCF1ADF0ACE14DF04A1F760E08BE204
:103300000E940E0660E08FE20E940E0660E08DE2F1
:103310000E940E0668EC70E080E090E00E94790662
:1033200061E08DE20E940E0668EC70E080E090E0C3
:103330000E94790660E08DE20E940E0668EC70E063
:1033400080E090E00E94790661E08DE20E940E0626
:1033500068EC70E080E090E00E94790660E08DE229
:103360000E940E0668EC70E080E090E00E94790612
:1033700061E08DE20E940E0668EC70E080E090E073
:103380000E9479060E94950C0E94950C86E194E0BB
:1033900004C00E94AB0C8CE394E00E9432108AE1DE
:1033A00095E056C01DD8882339F086E894E00E9445
:1033B00032100E94920D97CE83E794E00E94321063
:1033C00060E08DE20E940E0660E08BE20E940E0635
:1033D00061E08FE20E940E0668EE73E080E090E00C
:1033E0000E9479060E94850C80914B05882309F480
:1033F0007ACE8BE693E082D976CE0E94950C0E941D
:10340000950C0E94950C81E080934C0586EF94E02A
:103410000E94321080E090E00E94830CF82E8EEE25
:1034200094E00E9411106F2D70E080E090E04AE07F
:103430000E943E1089ED94E00E94111082ED92E00E
:103440000E947E108CEB94E00E9432108EE994E092
:103450000E94321048CE10926C0710926B0748EE13
:1034600053E060E070E040936D0750936E07609307
:103470006F077093700783E192E090936A078093DF
:1034800069072DEC30E030937607209375072CEC1C
:1034900030E0309378072093770728EC30E03093C2
:1034A0007A072093790729EC30E030937C0720934A
:1034B0007B072AEC30E030937E0720937D072EECCB
:1034C00030E03093800720937F071092820710929C
:1034D0008307109284071092850710926905109255
:1034E000680540936A0550936B0560936C05709373
:1034F0006D05909367058093660585EC90E0909349
:1035000073058093720584EC90E090937505809329
:10351000740580EC90E0909377058093760581ECBC
:1035200090E0909379058093780582EC90E09093F9
:103530007B0580937A0586EC90E090937D058093DF
:103540007C0510927F0510928005109281051092E3
:10355000820585E292E090931E0880931D0885E322
:1035600080932B0881E380932C0880916707803338
:10357000A0F491E0980F9093670780931A0890E069
:10358000FC01EE0FFF1F8E0F9F1FFC01E952F94F48
:1035900080ED97E09283818303C08FEF80931A08B8
:1035A00086E098E090932F0880932E0889E697E0B4
:1035B0009093D6068093D50682E08093C800E09170
:1035C0007507F09176071082E0917707F091780700
:1035D0008FEC808310928107E0917D07F0917E0748
:1035E00086E08083E0917B07F0917C078081806199
:1035F0008083E0917B07F0917C07808188608083E5
:10360000E0917B07F0917C07808180688083E09166
:103610007B07F0917C0780818F7D80831092040668
:10362000109206060895FC0188279927E8942191B5
:103630002032E9F3293010F02E30C8F32B3239F064
:103640002D3231F4689403C015D0820F911D219161
:1036500020532A30C8F31EF4909581959F4F08950A
:10366000BB274A3031F4992322F4BDE2909581952D
:103670009F4F09C07AE0979F902D879F802D910DD5
:1036800011240895BB27FB015527AA27880F991FEE
:10369000AA1FA41710F0A41B83955051B9F7A05D81
:1036A000AA3308F0A95DA193009779F7B111B193FE
:1036B0001192CB0100C0DC01FC01672F71917723CF
:1036C000E1F7329704C07C916D9370836291AE17DD
:1036D000BF07C8F30895E89409C097FB3EF490959E
:1036E0008095709561957F4F8F4F9F4F9923A9F0DB
:1036F000F92F96E9BB279395F6958795779567956A
:10370000B795F111F8CFFAF4BB0F11F460FF1BC0AD
:103710006F5F7F4F8F4F9F4F16C0882311F096E940
:1037200011C0772321F09EE8872F762F05C06623EE
:1037300071F096E8862F70E060E02AF09A95660FA7
:10374000771F881FDAF7880F9695879597F9089560
:103750000BD078C069D028F06ED018F0952309F00E
:103760005AC05FC01124A2C07ED0A0F3959FD1F3B0
:10377000950F50E0551F629FF001729FBB27F00D1F
:10378000B11D639FAA27F00DB11DAA1F649F662774
:10379000B00DA11D661F829F2227B00DA11D621FC3
:1037A000739FB00DA11D621F839FA00D611D221F7D
:1037B000749F3327A00D611D231F849F600D211D61
:1037C000822F762F6A2F11249F5750408AF0E1F004
:1037D00088234AF0EE0FFF1FBB1F661F771F881F4D
:1037E00091505040A9F79E3F510570F014C05EC043
:1037F0005F3FECF3983EDCF3869577956795B79538
:10380000F795E7959F5FC1F7FE2B880F911D969561
:10381000879597F9089597F99F6780E870E060E0D1
:1038200008959FEF80EC089500240A941616170659
:1038300018060906089500240A94121613061406A1
:1038400005060895092E0394000C11F4882352F004
:10385000BB0F40F4BF2B11F460FF04C06F5F7F4FBC
:103860008F4F9F4F089557FD9058440F551F59F0A3
:103870005F3F71F04795880F97FB991F61F09F3F5D
:1038800079F087950895121613061406551FF2CF86
:103890004695F1DF08C0161617061806991FF1CFD6
:1038A00086957105610508940895E894BB276627FD
:1038B0007727CB0197F90895F999FECF92BD81BD85
:1038C000F89A992780B50895262FF999FECF1FBA47
:1038D00092BD81BD20BD0FB6F894FA9AF99A0FBE39
:1038E00001960895052E97FB16F400940FD057FD0E
:1038F00005D024D007FC02D046F408C0509540956E
:10390000309521953F4F4F4F5F4F0895909580958B
:10391000709561957F4F8F4F9F4F089531D0A59F30
:10392000900DB49F900DA49F800D911D11240895BA
:10393000B7FFF4CFF3DF821B930B0895A1E21A2E99
:10394000AA1BBB1BFD010DC0AA1FBB1FEE1FFF1F43
:10395000A217B307E407F50720F0A21BB30BE40B93
:10396000F50B661F771F881F991F1A9469F76095DA
:103970007095809590959B01AC01BD01CF01089594
:10398000A29FB001B39FC001A39F700D811D1124A0
:10399000911DB29F700D811D1124911D08955058E5
:1039A000BB27AA270ED04ECF3FDF30F044DF20F0F8
:1039B00031F49F3F11F41EF434CF0EF4E095E7FB91
:1039C0002ACFE92F50DF80F3BA1762077307840705
:1039D000950718F071F49EF568CF0EF4E0950B2E64
:1039E000BA2FA02D0B01B90190010C01CA01A00151
:1039F0001124FF27591B99F0593F50F4503E68F1AC
:103A00001A16F040A22F232F342F4427585FF3CFEC
:103A1000469537952795A795F0405395C9F77EF4BD
:103A20001F16BA0B620B730B840BBAF09150A1F006
:103A3000FF0FBB1F661F771F881FC2F70EC0BA0F8C
:103A4000621F731F841F48F4879577956795B79514
:103A5000F7959E3F08F0B3CF9395880F08F099270C
:103A6000EE0F9795879508950CD0ECCEE4DE40F0EC
:103A7000DBDE30F021F45F3F19F0CDCE511116CFCF
:103A8000D0CEF1DE98F39923C9F35523B1F3951BFA
:103A9000550BBB27AA2762177307840738F09F5F6F
:103AA0005F4F220F331F441FAA1FA9F333D00E2EDE
:103AB0003AF0E0E830D091505040E695001CCAF74B
:103AC00029D0FE2F27D0660F771F881FBB1F261710
:103AD00037074807AB07B0E809F0BB0B802DBF01E3
:103AE000FF2793585F4F2AF09E3F510568F093CE11
:103AF000DDCE5F3FECF3983EDCF3869577956795D6
:103B0000B795F7959F5FC9F7880F911D9695879593
:103B100097F90895E1E0660F771F881FBB1F6217B2
:103B200073078407BA0720F0621B730B840BBA0B70
:103B3000EE1F88F7E095089504D06894B111B6CED1
:103B4000089599DE88F09F5790F0B92F9927B751C3
:103B5000A0F0D1F0660F771F881F991F1AF0BA9551
:103B6000C9F712C0B13081F0A0DEB1E008959DCE5A
:103B7000672F782F8827B85F39F0B93FCCF3869547
:103B800077956795B395D9F73EF4909580957095A4
:103B900061957F4F8F4F9F4F0895991B79E004C027
:103BA000991F961708F0961B881F7A95C9F780957C
:103BB0000895EE0FFF1F881F8BBF0790F691E02D31
:103BC000199481E090E0F894EEC2FC01819186178F
:103BD00021F08823D9F7992708953197CF010895C7
:103BE000FB0151915523A9F0BF01DC014D9145170F
:103BF0004111E1F759F4CD010190002049F04D91B8
:103C000040154111C9F3FB014111EFCF81E090E074
:103C1000019708950F931F93CF93DF93CDB7DEB72E
:103C20002E970FB6F894DEBF0FBECDBF0E891F8949
:103C300086E08C831A8309838FEF9FE79E838D83B1
:103C4000AE01465E5F4F688D798DCE01019611D031
:103C50002F813885F801E20FF31F10822E960FB6E0
:103C6000F894DEBF0FBECDBFDF91CF911F910F91B2
:103C700008952F923F924F925F926F927F928F9210
:103C80009F92AF92BF92CF92DF92EF92FF920F93EB
:103C90001F93CF93DF93CDB7DEB72C970FB6F89471
:103CA000DEBF0FBECDBF7C016B018A01FC01178214
:103CB0001682838181FFB0C1CE0101964C01F701CC
:103CC0009381F60193FD859193FF81916F01882384
:103CD00009F49EC1853239F493FD859193FF81915A
:103CE0006F01853221F4B70190E0C7D1E8CF512CA4
:103CF000312C20E02032A0F48B3269F030F4803295
:103D000059F0833269F420612CC08D3239F0803350
:103D100039F4216026C02260246023C0286021C0BD
:103D200027FD27C030ED380F3A3078F426FF06C063
:103D3000FAE05F9E300D1124532E13C08AE0389EA6
:103D4000300D1124332E20620CC08E3221F426FD5A
:103D50005FC1206406C08C3611F4206802C088362A
:103D600041F4F60193FD859193FF81916F018111DB
:103D7000C1CF982F9F7D9554933028F40C5F1F4F2F
:103D8000FFE3F9830DC0833631F0833771F083355B
:103D900009F057C021C0F801808189830E5F1F4F51
:103DA00044244394512C540114C03801F2E06F0EA6
:103DB000711CF801A080B18026FF03C0652D70E062
:103DC00002C06FEF7FEFC5012C874CD12C0183011E
:103DD0002C852F77222E16C03801F2E06F0E711C51
:103DE000F801A080B18026FF03C0652D70E002C0FD
:103DF0006FEF7FEFC5012C872AD12C012C8520681D
:103E0000222E830123FC19C0832D90E04816590609
:103E1000A0F4B70180E290E030D13A94F5CFF501FB
:103E200027FC859127FE81915F01B70190E025D1A4
:103E300031103A94F1E04F1A51084114510479F7C6
:103E4000DEC0843611F0893631F5F80127FF07C04E
:103E500060817181828193810C5F1F4F08C06081F6
:103E60007181072E000C880B990B0E5F1F4F2F7668
:103E7000722E97FF09C090958095709561957F4F40
:103E80008F4F9F4F2068722E2AE030E0A4012DD181
:103E9000A82EA81843C0853729F42F7EB22E2AE019
:103EA00030E025C0F22FF97FBF2E8F36C1F018F415
:103EB000883579F0ADC0803719F0883721F0A8C077
:103EC0002F2F2061B22EB4FE0DC08B2D8460B82E32
:103ED00009C024FF0AC09F2F9660B92E06C028E0B3
:103EE00030E005C020E130E002C020E132E0F8011E
:103EF000B7FE07C060817181828193810C5F1F4F83
:103F000006C06081718180E090E00E5F1F4FA401C8
:103F1000ECD0A82EA818FB2DFF777F2E76FE0BC0C5
:103F2000372D3E7FA51450F474FE0AC072FC08C001
:103F3000372D3E7E05C0BA2C372D03C0BA2C01C0E8
:103F4000B52C34FF0DC0FE01EA0DF11D80818033D8
:103F500011F4397E09C032FF06C0B394B39404C093
:103F6000832F867809F0B39433FD12C030FF06C06A
:103F70005A2CB31418F4530C5B18B32CB31460F41C
:103F8000B70180E290E03C8778D0B3943C85F6CFCF
:103F9000B31410F43B1801C0312C34FF11C0B70129
:103FA00080E390E03C8769D03C8532FF16C031FD4C
:103FB00003C088E790E002C088E590E0B7010CC03C
:103FC000832F867851F031FF02C08BE201C080E27E
:103FD00037FD8DE2B70190E050D0A51430F4B70161
:103FE00080E390E04AD05A94F8CFAA94F401EA0D05
:103FF000F11D8081B70190E040D0A110F6CF3320B1
:1040000009F45DCEB70180E290E037D03A94F7CF63
:10401000F7018681978102C08FEF9FEF2C960FB634
:10402000F894DEBF0FBECDBFDF91CF911F910F91EE
:10403000FF90EF90DF90CF90BF90AF909F908F90C8
:104040007F906F905F904F903F902F900895FC016C
:104050000590615070400110D8F7809590958E0FB3
:104060009F1F0895FC016150704001900110D8F726
:10407000809590958E0F9F1F08950F931F93CF9358
:10408000DF93FB01238121FD03C08FEF9FEF28C049
:1040900022FF16C04681578124813581421753077C
:1040A00044F4A081B1819D012F5F3F4F3183208374
:1040B0008C93268137812F5F3F4F3783268310C033
:1040C000EB01092F182F0084F185E02D1995892B1C
:1040D000E1F68E819F8101969F838E83812F902FA1
:1040E000DF91CF911F910F910895FA01AA272830EF
:1040F00051F1203181F1E8946F936E7F6E5F7F4FB5
:104100008F4F9F4FAF4FB1E03ED0B4E03CD0670F30
:10411000781F891F9A1FA11D680F791F8A1F911D83
:10412000A11D6A0F711D811D911DA11D20D009F4D3
:1041300068943F912AE0269F11243019305D319315
:10414000DEF6CF010895462F4770405D4193B3E0FE
:104150000FD0C9F7F6CF462F4F70405D4A3318F0A5
:10416000495D31FD4052419302D0A9F7EACFB4E056
:10417000A6959795879577956795BA95C9F700970E
:104180006105710508959B01AC010A2E06945795AF
:10419000479537952795BA95C9F7620F731F841F06
:0A41A000951FA01D0895F894FFCFAD
:1041AA002B38363138383435373837393238000019
:1041BA000000001D04AC12AD036304DE03BC03D08F
:1041CA0003000000005A09FC083205536572696150
:1041DA006C205265616479004C454420496E6469DB
:1041EA006361746F7220696E697469616C6C697A53
:1041FA00656400446F6F7220537461747573204450
:10420A0065746563746F7220696E697469616C6C38
:10421A00697A65640042757A7A657220696E697492
:10422A0069616C6C697A65640052656C61792069B0
:10423A006E697469616C6C697A656400536572763B
:10424A006F20696E697469616C6C697A6564005380
:10425A006B69702074686520496E66726172656464
:10426A0020436F6E74726F6C2070617274004F4BD2
:10427A000D0A0041542D2D2D2D4F4B0041542B4337
:10428A0046554E3D312D2D2D2D4F4B002B43504978
:10429A004E3A205245414459004750525320696EC4
:1042AA00697469616C6C697A656400446F6F722025
:1042BA004C6F636B2064657669636520696E697407
:1042CA0069616C697A6564004750525320696E6966
:1042DA007469616C6C697A65206661696C656420D1
:1042EA006F72206E6F74206578697374002D2D2D9E
:1042FA002D2D2D2D2D2D2D2D2D2D2D2D2D2D2D2DE4
:10430A002D2D2D2D2D2D2D2D2D2D00536F6D656FDE
:10431A006E6520617474656D7074656420746F20B5
:10432A006F70656E2074686520646F6F72206279A1
:10433A002077726F6E6720526669642063617264C7
:10434A002000646F6F72206F70656E656400646F21
:10435A006F72206661696C656420746F206F706586
:10436A006E00456E746572696E672047505253201D
:10437A0066756E6374696F6E002B434D474C3A0045
:10438A00556E72656164206D657373616765203A65
:10439A0020002B434D47523A00696E636F6D696E78
:1043AA0067204D657373616765203A20006C656EFE
:1043BA00677468203A200070686F6E65203A2000A2
:1043CA006461746174696D65203A20006D6173746B
:1043DA0065722070686F6E652063616C6C20696E0F
:1043EA00006F70656E2074686520646F6F72006F6D
:1043FA0070656E20646F6F72206279206D617374CC
:10440A006572277320636F6D6D616E6400446F6F10
:10441A0072206F70656E656400446F6F722066610A
:10442A00696C656420746F206F70656E00436F6DF0
:10443A006D616E64206572726F7200496E76616C8E
:10444A00696420436F6D6D616E640A53656E642002
:10445A002225732220746F206F70656E2074686540
:10446A0020646F6F720A53656E64202225732220BE
:10447A00746F2074726967676C652074686520615F
:10448A006C61726D00475052532066756E63746991
:10449A006F6E2045786974656400637573746F6D17
:1044AA0020636F6D6D616E64206661696C6564007E
:1044BA00536574206D657373616765206D6F6465FC
:1044CA0020746F204153434949204572726F72002C
:1044DA003E006661696C656420746F2067656920B7
:0644EA00273E2720000020
:00000001FF
